:020000040000FA
:020000000328D3
:040002000034003492
:0A0006008312860183160030860085
:10001000051585158312F630A2000130A300A40156
:100020001928FF30A2000A30A300A4010930A4005F
:1000300019282408860021202120212021202A207F
:100040001928FF30A000FF30A100A10B2528A00B2C
:10005000232808004820031D2E2832284B20031D8A
:100060002A283F284B20031D36282A28212021201A
:10007000A40AA20F3C280B28A30F08000B2821205C
:100080002120A403A30B45281128A20B08000B284C
:0C009000050804390800050808390800BC
:02400E00F93F78
:00000001FF
