:020000040000FA
:020000000328D3
:040002000034003492
:0A0006008312860183160030860085
:10001000051585158312A401A5010030A500023E37
:10002000A4001928A401A5010930A500023E24302E
:100030001928250886004B204B204B204B202120DF
:100040001928050804390508031D2C282728050848
:100050000839031D3128212805080839031D2128E6
:100060003E284B204B2005080439031D2128A40AF3
:100070000C3024063C280B28A50A08004B204B20F6
:1000800005080839031D2128A40301302406492846
:100090001228A5030800FF30A000FF30A100A10B2B
:0800A0004F28A00B4D280800B9
:02400E00F93F78
:00000001FF
