:020000040000FA
:020000000328D3
:040002000034003492
:0A0006008312860183160030860085
:10001000051585158312A401A5010030A500023E37
:10002000A4001928A401A5010930A500023E24302E
:10003000192825088600492049204920492005081B
:1000400004390508031D2A28252805080839031D39
:100050002F281F2805080839031D1F283C28492080
:10006000492005080439031D1F28A40A0C30240662
:100070003A280B28A50A19284920492005080839DB
:10008000031D1F28A4030130240647281228A503B6
:100090001928FF30A000FF30A100A10B4D28A00BB4
:0400A0004B280800E1
:02400E00F93F78
:00000001FF
